:100000000C944F000C94D4160C94D4160C94FF133B
:100010000C94D4160C946B140C948C140C94AD1496
:100020000C948B120C94D4160C94D4160C94D416F5
:100030000C945B110C94D4160C94D4160C94D41616
:100040000C94D4160C94D4160C94D4160C94D41688
:100050000C94D4160C94D4160C94D4160C94D41678
:100060000C94D4160C94D4160C94D4160C94D41668
:100070000C94D4160C94D4160C94D4160C94D41658
:100080000C94D4160C94D4160C94D41601000118B8
:100090008001180120002DB60120012980001124C3
:1000A0001FBECFEFD0E1DEBFCDBFECE8F0E040E017
:1000B00017C0B591A59135912591059107FD0CC00B
:1000C00095918591EF01F92FE82F05900D92A217D8
:1000D000B307D9F7FE0104C01D92A217B307E1F7D9
:1000E000ED39F40731F70E9499070C943F16F89404
:0200F000FFCF40
:1000F2002575003A005475657364617920202020CB
:10010200005765646E6573646179202000546875D8
:1001120072736461792020200046726964617920DB
:1001220020202020005361747572646179202020A0
:100132000053756E6461792020202020004D6F6E7F
:1001420064617920202020200054656D7065726101
:10015200747572653A2000430048756D696469746C
:10016200793A2000250050726573737572653A20E2
:10017200006D6D204867006D696E2020002D002003
:090182002020006D6178202000AE
:10018B0068076C094C836A9074A07AC000806888F9
:06019B0000846C8200816B
:0701A100286E756C6C29004B
:0601A800286E696C2900BD
:1001AE00A3EAB0E0EDEDF0E00C940C154C01590112
:1001BE00C756DF4F488359836A83C959D040212CD3
:1001CE00312C6E012BE8C20ED11C85E2782E260151
:1001DE0030E8632ECE018D569F4FC456DF4F998364
:1001EE008883CC59D0409C0140E8CF55DF4F2883FF
:1001FE0039834A83C15AD040C756DF4F4881C95907
:10020E00D040C656DF4F5881CA59D040C556DF4F31
:10021E006881CB59D040FA01849167FD8081882393
:10022E0009F4C9C3CF57DF4F19821882C158D04085
:10023E008FEF9FEFCD57DF4F99838883C358D04000
:10024E00CB57DF4F19821882C558D040A1E0B0E0DD
:10025E00AC0FBD1FC957DF4FB983A883C758D04015
:10026E00E0E8F0E0C757DF4FF983E883C958D04084
:10027E00CA01A62FE12CF12CFC012491A7FD2081AF
:10028E0021111BC0E114F10401F19701C4010E9478
:10029E004113C756DF4F88819981AA81C959D04031
:1002AE008E0D9F1DA11DF7FCAA95C756DF4F8883A3
:1002BE009983AA83C959D04008C00196A11D253241
:1002CE0009F3FFEFEF1AFF0AD7CFC756DF4F88812A
:1002DE009981AA81C959D040FC012491A7FD2081A2
:1002EE00253209F056C39C014A2F2F5F3F4F4F4FC7
:1002FE00C256DF4F288339834A83CE59D040C75622
:10030E00DF4F288339834A83C959D040C756DF4F00
:10031E0088819981AA81C959D040FC012491A7FDF9
:10032E0020812B3241F4CF57DF4F28813981C158BC
:10033E00D04024600BC02C32CCF02D3259F5CF5763
:10034E00DF4F28813981C158D0402160CF57DF4F10
:10035E0039832883C158D0400196A11DC756DF4F5F
:10036E0088839983AA83C959D040D0CF203241F4D3
:10037E00CF57DF4F28813981C158D0402860E6CF52
:10038E00233291F4CF57DF4F28813981C158D040A5
:10039E002061DCCF203341F4CF57DF4F28813981E4
:1003AE00C158D0402260D2CF2A3299F50196A11DB4
:1003BE00C756DF4F88839983AA83C959D040D50188
:1003CE00ED91FC911197CF0102968D939C938081B4
:1003DE009181CB57DF4F99838883C558D04097FFC3
:1003EE003EC0CF57DF4F28813981C158D040B1E090
:1003FE002B27CF57DF4F39832883C158D040919593
:10040E0081959109CB57DF4F99838883C558D0408A
:10041E0026C0BC018A2F0E944312CB57DF4F99830F
:10042E008883C558D040C756DF4F288139814A810D
:10043E00C959D040F901849147FD8081082E000CE6
:10044E00990BC0970A9758F42F5F3F4F4F4FC756DF
:10045E00DF4F288339834A83C959D040E4CFCF5721
:10046E00DF4F88819981C158D04080FF07C08D7FB2
:10047E00CF57DF4F99838883C158D040C756DF4F7F
:10048E0088819981AA81C959D040FC012491A7FD88
:10049E0020812E3209F058C0CD57DF4F19821882B5
:1004AE00C358D0409C014A2F2F5F3F4F4F4FC75626
:1004BE00DF4F288339834A83C959D040F9015491BB
:1004CE0047FD50815A32D1F40296A11DC756DF4F17
:1004DE0088839983AA83C959D040D501ED91FC91A7
:1004EE001197CF0102968D939C9380819181CD5768
:1004FE00DF4F99838883C358D04026C0842FB9011B
:10050E000E944312CD57DF4F99838883C358D04042
:10051E00C756DF4F288139814A81C959D040F90128
:10052E00849147FD8081082E000C990BC0970A9785
:10053E0058F42F5F3F4F4F4FC756DF4F28833983F5
:10054E004A83C959D040E4CFCE0187569F4F0E94AF
:10055E00AB11182FC756DF4F2881C959D040C65648
:10056E00DF4F8881CA59D040C556DF4F9881CB598D
:10057E00D040E22FF82F849197FD8081082E000C39
:10058E00990B0E949A168936910509F45AC0B4F453
:10059E008336910509F466C144F48532910509F458
:1005AE00A1C18136910529F1B3C18436910509F4B3
:1005BE0048C0883691050CF42DC1AAC1803791052B
:1005CE0009F4CBC04CF48E36910509F419C18F365F
:1005DE00910509F47CC09CC18537910509F454C07E
:1005EE008837910509F496C08337910509F090C1BB
:1005FE0058C1612F70E0A501C6010E94CE14892B4F
:10060E0009F4B7C1C756DF4F88819981AA81C959AC
:10061E00D0409C014A2F2F5F3F4F4F4FC756DF4FA1
:10062E00288339834A83C959D040FC012491A7FD00
:10063E002081A601BE016F577F4FC4010E94D116C3
:10064E0095C1612F70E0950141E050E0C6010E9416
:10065E003109892B09F48DC1C756DF4F88819981E5
:10066E00AA81C959D0400196A11DC756DF4F888374
:10067E009983AA83C959D040A601BE016F577F4FF7
:10068E00C4010E94720872C1612F70E0950140E0B2
:10069E0050E0C6010E943109892B09F46AC1C75680
:1006AE00DF4F88819981AA81C959D0400196A11D39
:1006BE00C756DF4F88839983AA83C959D040A601B4
:1006CE00BE016F577F4FC4010E94B60F4FC1612FFD
:1006DE0070E0950140E050E0C6010E943109892B7F
:1006EE0009F447C1C756DF4F88819981AA81C9593C
:1006FE00D0400196A11DC756DF4F88839983AA83E8
:10070E00C959D040A601BE016F577F4FC4010E9448
:10071E00300E2CC1612F70E0950140E050E0C60113
:10072E000E943109892B09F424C1C756DF4F8881F5
:10073E009981AA81C959D0409C014A2F2F5F3F4F02
:10074E004F4FC756DF4F288339834A83C959D0404C
:10075E00FC012491A7FD20814BC0950140E050E0A3
:10076E0060EF70E0C6010E943109892B09F401C1C6
:10077E00C756DF4F88819981AA81C959D040019609
:10078E00A11DC756DF4F88839983AA83C959D040CC
:10079E0086E028EA31E040E0F901DE01AD56BF4FB8
:1007AE00742F0E940416D6012C9111963C9111972C
:1007BE0012964C91129713965C91139714966C9116
:1007CE00149715967C91159716968C9116971796E9
:1007DE009C91A0E00E941D1651F400E010E0CF5550
:1007EE00DF4F288139814A81C15AD040B9C028E7EC
:1007FE00A601BE016F577F4FC4010E945906B6C0B5
:10080E00612F70E09501A1014E0D5F1DC6010E9482
:10081E00C40DAFC0612F70E0A501C6010E94CE14B9
:10082E00892B09F4A6C0C756DF4F88819981AA810A
:10083E00C959D0409C014A2F2F5F3F4F4F4FC7568B
:10084E00DF4F288339834A83C959D040FC01249154
:10085E00A7FD2081A601BE016F577F4FC4010E94E4
:10086E00D11684C0103809F084C0C756DF4F888176
:10087E009981AA81C959D0400196A11DC756DF4F53
:10088E0088839983AA83C959D040D501ED91FC91F3
:10089E001197CF0102968D939C938081F6018083F0
:1008AE005BC0103809F065C0C756DF4F888199814B
:1008BE00AA81C959D0400196A11DC756DF4F888322
:1008CE009983AA83C959D040D501ED91FC91119716
:1008DE00CF0103968D939C9320813181428100E05C
:1008EE0010E03EC0103809F044C0C756DF4F888173
:1008FE009981AA81C959D0400196A11DC756DF4FD3
:10090E0088839983AA83C959D040F601708224C086
:10091E00D6017C92C256DF4F288139814A81CE5949
:10092E00D040C756DF4F288339834A83C959D040F8
:10093E00CF57DF4F19821882C158D040CB57DF4FA7
:10094E0019821882C558D0408FEF9FEFCD57DF4FD9
:10095E0099838883C358D04001E010E0462D920160
:10096E00BE016F577F4FC4010E949A0E8E0D9F1DC0
:10097E0011C0C756DF4F88819981AA81C959D040CD
:10098E000196A11DC756DF4F88839983AA83C95943
:10099E00D040C7017101E80EF91EE214F3044CF4C5
:1009AE008FE490E090931701809316018FEF9FEFE5
:1009BE0003C0170121CCC101CD55DF4FE2E10C94EC
:0209CE004315CF
:1009D0004F925F926F927F928F929F92AF92BF924F
:1009E000CF92DF92EF92FF920F931F93CF93DF93FB
:1009F00000D000D0CDB7DEB70E9405136B017C019B
:100A00000E94641069837A838B839C8380910801A0
:100A100090910901A7019601281B390B4109510941
:100A2000A0910A01B0910B010E9434162B013C01E8
:100A3000032E3FE075946794579447943A95D1F705
:100A4000302D6091120170911301CB01770FAA0B29
:100A5000BB0BBC01CD01052E5BE0660F771F881F25
:100A6000991F5A95D1F7502D20910E0130910F0109
:100A70008901330F220B330BA9019801240D351D79
:100A8000461D571D0E947615420E531E641E751E8C
:100A900080EA481A8FE0580A61087108A3019201A0
:100AA000C301B2010E94C7154B015C01072E7CE017
:100AB000B594A794979487947A95D1F7702DA091C7
:100AC0000001B0910101A50194010E9492166B01F1
:100AD0007C010B2EBBE0F594E794D794C794BA95AC
:100AE000D1F7B02DA0910C01B0910D01A30192019D
:100AF0000E949216DC01CB01072E7BE0B595A795ED
:100B0000979587957A95D1F7702DC80ED91EEA1E54
:100B1000FB1E8091040190910501092E000CAA0B87
:100B2000BB0B880F991FAA1FBB1F880F991FAA1FF5
:100B3000BB1FC80ED91EEA1EFB1E82E0C80ED11CC8
:100B4000E11CF11CF594E794D794C794F594E794CD
:100B5000D794C794A0911401B09115010E949216E8
:100B60002B013C01032E3DE0759467945794479404
:100B70003A95D1F7302DA0910601B0910701A5015A
:100B800094010E949216BB2797FDB095AB2F840D60
:100B9000951DA61DB71D0296A11DB11DB595A79562
:100BA00097958795B595A795979587959C01AD01E4
:100BB00030584F4F5F4FA0911001B09111010E942A
:100BC00034162B013C01032E3FE076946794579432
:100BD00047943A95D1F7302D29813A814B815C8138
:100BE0002C193D094E095F09A0E5B3EC0E943416AB
:100BF00099235CF0660F771F881F991FA30192014C
:100C00000E94491469017A010AC0A30192010E945D
:100C1000491469017A01CC0CDD1CEE1CFF1C9927DC
:100C2000F7FC9A958F2D7E2D6D2D9B01AC010E94B6
:100C3000C7159B01AC01AEEDBBE00E9434164C0120
:100C4000BB2497FCB094AB2CA3E4B3EEA7019601B0
:100C50000E949516BB2797FDB095AB2F880D991D67
:100C6000AA1DBB1D8153914FAF4FBF4F689413F81E
:100C7000B595A795979587951694D1F7BC01CD01A9
:100C80006C0D7D1D8E1D9F1D0F900F900F900F906E
:100C9000DF91CF911F910F91FF90EF90DF90CF9058
:100CA000BF90AF909F908F907F906F905F904F908C
:020CB0000895A5
:100CB200A4E1B0E0EFE5F6E00C940C1598878F8381
:100CC2007A8369835C8B4B8B122FDB011296ED9139
:100CD200FC91139714962D913C9115973E832D8389
:100CE200ED90FC90119716962D903C901797F7FD7A
:100CF20003C0E894E1F802C0E1E0F0E0C7018071CE
:100D020099279A878987E4FE1FC0AB89BC892C91F9
:100D120011963C91119712964C91129713965C91F1
:100D2200139714966C91149715967C9115971696B5
:100D32008C91169717969C91A0E00E941D1621F0A7
:100D42008D819E81029702C08D819E8197012870BC
:100D520033273C872B87E3FC0197AB89BC894C90F6
:100D620011965C90119712966C90129713967C9044
:100D7200139714968C90149715969C901597169627
:100D8200AC9016971796BC90A981BA811896CD900F
:100D9200DC901997B1E0CB1AD108D101AC0DBD1D81
:100DA2001C929C838B839F01281B390B3E872D87C6
:100DB200C70182709927988B8F87812F012E000C93
:100DC200990BDC01A154B109BA8BA98B32E0C3168D
:100DD200D10434F489859A85892B09F04CC073C0FB
:100DE2009201A301B401C501A0E00E941D1681F188
:100DF200B1E0CB1AD108C2018F7099278A309105D0
:100E020014F4C09602C0895A9F4FE989FA897A97E9
:100E120048F49C012062215631092A31310510F42F
:100E22000E947116F101EC0DFD1D80832B813C8126
:100E3200215031093C832B839201A301B401C501E6
:100E420004E00E94F01429013A014B015C01BECF7B
:100E52008D859E85AB81BC818A0F9B1F1816190652
:100E62003CF21A161B060CF0B5CFEF85F889EF2B72
:100E720009F0BECFAFCFAB89BC892C9111963C91C2
:100E8200119712964C91129713965C9113971496A0
:100E92006C91149715967C91159716968C911697CE
:100EA20017969C91A0E00E941D1669F0F101EC0DCD
:100EB200FD1D31971083B2E0CB1AD108F101EC0D80
:100EC200FD1D80E38083EB85FC85EF2B41F0F1E093
:100ED200CF1AD108F101EC0DFD1D80E28083A981BA
:100EE200BA8118962D913C911997215031092C19EC
:100EF2003D09C20CD31CA60160E80D811E818F81C1
:100F020098850E94DC0B9C01EF81F885808191819C
:100F120090FF09C0A981BA8112968D919C91139775
:100F2200821793070CF4C9016496E2E10C9443150D
:100F3200CF93DF93CDB7DEB760970FB6F894DEBFDD
:100F42000FBECDBF8FEF8ABB8FE387BB81E00E94CC
:100F5200FF0E82E00E94FF0EEAE6F0E080818063ED
:100F6200808385E58ABF84EF89BF78940E94BE168C
:100F72000E94920A19821A8287E0E8E1F1E0DE011A
:100F8200139601900D928A95E1F7BE016E5F7F4F35
:100F9200CE0101960E94EA090E94E8040E94CA1248
:100FA2002DEC3CE445E053E40E94CA160E94A216CE
:100FB2008B01AB016A8189810E940E10809121010F
:100FC200811114C018C0822F90E0E3E0F0E0EC0F32
:100FD200FD1FE80FF91F32E33083EAE0F0E0EC0F87
:100FE200FD1FE80FF91F10822F5F01C020E027309C
:100FF20050F31092210190912301809124018923C1
:1010020009F448C0BE016E5F7F4FCE0101960E9477
:10101200EA090E94E8040E94CA122DEC3CE445E071
:1010220053E40E94CA160E94A2168B01209120014D
:10103200211105C0AB016A8189810E940E101092B4
:10104200230180912501EAE0F0E0EC0FFD1FE80F9B
:10105200F11D90818981981748F490912501EAE069
:10106200F0E0EC0FFD1FE90FF11D80839091250147
:10107200E3E0F0E0EC0FFD1FE90FF11D908189170D
:1010820048F490912501E3E0F0E0EC0FFD1FE90F39
:10109200F11D80838091200120911F0191E0811137
:1010A20090E081E0211180E0892341F0A8016A816A
:1010B20089810E940E1081E080931F01809122019C
:1010C200882361F09E01265F3F4F40E8BE016D5FBD
:1010D2007F4F80E80E94E10C109222010E945B0F78
:0210E2006DCFD0
:1010E400ADE0B0E0E8E7F8E00C940C159A87898746
:1010F4007C836B83FA01DB011296CD90DC9013970D
:1011040014968D919C9115979E838D83ED90FC9000
:101114001197FA82E98216960D90BC91A02DB8879A
:10112400AF832080318042805380648075808680C4
:1011340097808101B42DF52DE62D7B868C869D86C6
:101144009101A201B301C401A0E00E941D164CF458
:101154000E94D7158901B42FF52FE62F7B878C8742
:101164009D87D7FC04C0E894E1F8FA82E9829101F2
:10117400A201B301C401A0E0ED80FE800E941D160F
:101184001CF0898182FF04C081E0E81AF10805C0DF
:1011940083FF03C091E0E91AF108CE0101965C01D6
:1011A4008AE0C82ED12C2B2F3F2F4E2F5B856C85C8
:1011B4007D858B819C810E94370BFC019101A201EA
:1011C400B301C401A0E00E941D161CF0898182FFB6
:1011D40012C031970F8118850E0F1F1F9101A201B4
:1011E400B301C401A0E00E941D1614F08BE201C0FB
:1011F4008DE2D80108C083FF07C03197AF81B8855D
:10120400AE0FBF1F80E28C93E980FA80AB81BC8172
:1012140018962D913C911997215031092E1B3F0BA3
:101224008F819885E80FF91FAF0160E80D811E8159
:1012340089859A850E94DC0B9C01A985BA858D91CC
:101244009C9190FF07C0EB81FC818281938182177E
:0E12540093070CF4C9012D96E2E10C944315AA
:101262000F931F93CF93DF93FC01D9016838710567
:1012720031F194F461387105B1F12CF460387105E3
:1012820009F478C09FC06238710509F459C0643806
:10129200710509F46FC096C0603A710509F448C03F
:1012A2002CF46039710509F44BC08CC0603C7105A7
:1012B20009F476C0603F710509F472C083C0CD9114
:1012C200DC911197CE0102968D939C93452B39F0B8
:1012D2009881892F880F880B908381835BC08881D6
:1012E2008083118268C0CD91DC911197CE01049662
:1012F2008D939C93452B99F088819981AA81BB811A
:10130200AC01BD01770F440B542FBA018083918346
:10131200A283B383448345834683478328C00881DD
:1013220019812A813B81008311832283338345C043
:10133200CD91DC911197CE0102968D939C9323C09F
:10134200CD91DC911197CE0108968D939C93788173
:1013520069815A814B813C812D819E818F8170836D
:10136200618352834383348325839683878381E019
:1013720090E02AC0CD91DC911197CE0102968D9317
:101382009C93452BA1F099812881892F880F880B86
:101392002083918382838383848385838683E6CFBC
:1013A200CD91DC911197CE0102968D939C93088189
:1013B200198100831183128213821482158216828C
:1013C2001782D5CF80E090E0DF91CF911F910F91EE
:0213D20008957C
:1013D400EF92FF920F931F93CF93DF9300D000D02F
:1013E4000F92CDB7DEB77C01A1E6B0E02C9121606D
:1013F4002C93E2E6F0E020812160208387EA91E6E5
:101404000197F1F700C0000020812E7F208383E93B
:1014140091E10197F1F700C0000020812160208351
:101424002C912E7F2C939DE09A95F1F7000080B1CA
:10143400082F017080FD63C0AAE1AA95F1F700C0EE
:1014440090B1892F817090FF5FC0BAE1BA95F1F72E
:1014540000C0FE01319685E0DF011D928A95E9F70F
:1014640010E023C0009BFECFBAE0BA95F1F7009BD1
:1014740014C047E050E0491B510921E030E002C0AC
:10148400220F331F4A95E2F7E1E0F0E0EC0FFD1F75
:10149400E10FF11D8081282B20830099FECF9F5FEF
:1014A40001C090E09830F0F21F5F1530D0F3E1E610
:1014B400F0E0808181608083E2E6F0E080818160F9
:1014C4008083E7EAF1E63197F1F700C00000298153
:1014D4008A8190E0820F911D3B81830F911D4C8185
:1014E400840F911D009769F04D8150E08417950792
:1014F40051F4D7013C93FB01208381E005C080E0D7
:1015040003C0802F01C0802F0F900F900F900F9079
:101514000F90DF91CF911F910F91FF90EF9008955D
:10152400CF93DF930E947A168EEE0E944A168AEABF
:101534000E944A160E9482160E947A168FEE0E941A
:101544004A160E945416C82FD0E0DC2FCC270E94E4
:101554005416C82BD0930501C09304010E9454165D
:10156400C82FD0E0DC2FCC270E945416C82BD09370
:101574000D01C0930C010E945416C82FD0E0DC2F3B
:10158400CC270E945416C82BD0931501C093140184
:101594000E945416C82FD0E0DC2FCC270E9454168A
:1015A400C82BD0931101C09310010E945416C82F68
:1015B400D0E0DC2FCC270E945416C82BD0930B010B
:1015C400C0930A010E945416C82FD0E0DC2FCC2708
:1015D4000E945416C82BD0930901C09308010E949D
:1015E4005416C82FD0E0DC2FCC270E945416C82BE9
:1015F400D0930701C09306010E945416C82FD0E06F
:10160400DC2FCC270E945416C82BD0930101C09321
:1016140000010E945416C82FD0E0DC2FCC270E9472
:101624005416C82BD0930301C09302010E94541690
:10163400C82FD0E0DC2FCC270E945416C82BD0939F
:101644001301C09312010E945416C82FD0E0DC2F5E
:10165400CC270E945E16C82BD0930F01C0930E01B5
:0A1664000E948216DF91CF910895D5
:10166E00A2E1B0E0EDE3FBE00C940C15FC010A8B5B
:10167E001B832C83732E642E552E462E7D83CC8693
:10168E00D886BF82AE82868197819B878A87D50155
:10169E004D915C91228133818085918501971C014A
:1016AE0037FF02C021E030E0EA85FB85E80FF91F25
:1016BE0010824701E1E0F0E0FA83E983C9018E1957
:1016CE009F099E878D87DA01A270BB27B88BAF87E3
:1016DE00B885BB0FBB0BB98B1214130474F0A98120
:1016EE00BA81AB2B09F05CC0AE81BF818D919C910C
:1016FE0011978F7E8D939C9353C02A893B814C8189
:10170E00572D662D752D842D9D81A0E00E941D16EE
:10171E00B1F1E1E02E1A3108FC85F987AF2EB884BD
:10172E00C988DC2CEC2CFC2C0C2D1C2D2A893B8121
:10173E004C81572D662D752D842D9D810E94F61599
:10174E00C90129839A83EA85FB85E20DF31D805D2D
:10175E00808381E0881A91082A893B814C81572D1C
:10176E00662D752D842D9D810E94F8152A8B3B8345
:10177E004C83752E662E572E482E9D83ADCF8D85AC
:10178E009E85880D991D181619061CF21814190439
:10179E000CF0A5CFEF85F889EF2B09F0BACF9FCFCC
:0A17AE00C1016296E2E10C944315BC
:1017B8002F923F924F926F927F928F92AF92BF92E9
:1017C800CF92DF92EF92FF920F931F93CF93DF9305
:1017D800CDB7DEB766970FB6F894DEBF0FBECDBFA4
:1017E8005C013A01862E6901C701817099279C8B9B
:1017F8008B8BE0FC1DC020173107D4F47801EC185E
:10180800FD08FE8AED8AA70191E1E916F10410F0BE
:1018180040E150E060E270E0CE0101969A8B898B3E
:101828000E94681689899A891C0120E8422E0BC0FB
:101838009601682DA301C5010E944113C016D10667
:10184800ECF2C60125C090E1E916F10458F020E158
:1018580030E0642DA101C5010E94411380E1E81A1E
:10186800F108F1CF2D893E892F70332789899A890C
:10187800AC0160E8C5010E9441138B899C89892BC2
:1018880031F49601682DA301C5010E944113C801D6
:1018980066960FB6F894DEBF0FBECDBFDF91CF912D
:1018A8001F910F91FF90EF90DF90CF90BF90AF9076
:0E18B8008F907F906F904F903F902F900895EB
:1018C600413011F470E001C073E0413011F491E051
:1018D60001C094E0413011F452E001C055E0633696
:1018E600B9F4E8B321E030E0D90102C0AA0FBB1F6A
:1018F6007A95E2F7BD0160956E2368BB68B302C0B6
:10190600220F331F9A95E2F72095262328BB17C08E
:101916006436A9F4E8B321E030E0D90102C0AA0F89
:10192600BB1F7A95E2F7BD016E2B68BB68B302C098
:10193600220F331F9A95E2F72095262328BB4130C4
:1019460041F49BB3907F282F22952F70922B9BBB3F
:1019560006C09BB39F70282F207F922B9BBB98B30A
:1019660021E030E002C0220F331F5A95E2F7922B96
:1019760098BB98B3522F5095952398BBBDE0BA9566
:10198600F1F70000413031F49BB3907F8F70892BC3
:101996008BBB09C04BB360E1869FC0011124942F15
:1019A6009F70892B8BBB88B3282B28BB88B3582301
:0C19B60058BB8DE08A95F1F70000089501
:1019C2006F927F928F92CF92DF92EF92CF933B01F1
:1019D200882E6901E42E42E063E681E00E94630CF6
:1019E20083EF91E00197F1F700C0000042E060E070
:1019F20081E00E94291642E069E771E080E00E94DE
:101A02002815C0E01CC0A82DC3018C0F911DA11D7B
:101A1200FC018491A7FD8081823339F442E06FE7B3
:101A220071E080E00E94281503C062E00E94D31397
:101A320042E061E871E080E00E942815CF5FC73084
:101A420010F342E060E082E00E94291642E065E87D
:101A520071E080E00E942815C0E01CC0AE2DC601D6
:101A62008C0F911DA11DFC018491A7FD8081811124
:101A720007C042E06FE771E080E00E94281503C0D2
:101A820062E00E94D31342E061E871E080E00E94CC
:101A92002815CF5FC73010F3CF91EF90DF90CF9032
:081AA2008F907F906F90089572
:101AAA0010C00E94B01658F00E94A91640F029F4FE
:101ABA005F3F29F00C94C41651110C94B8160C947B
:101ACA00CE160E94271468F39923B1F3552391F394
:101ADA00951B550BBB27AA2762177307840738F093
:101AEA009F5F5F4F220F331F441FAA1FA9F335D0F0
:101AFA000E2E3AF0E0E832D091505040E695001CA4
:101B0A00CAF72BD0FE2F29D0660F771F881FBB1F5D
:101B1A00261737074807AB07B0E809F0BB0B802D3B
:101B2A00BF01FF2793585F4F3AF09E3F510578F067
:101B3A000C94C4160C94B8165F3FE4F3983ED4F3A1
:101B4A00869577956795B795F7959F5FC9F7880F3B
:101B5A00911D9695879597F90895E1E0660F771F8D
:101B6A00881FBB1F621773078407BA0720F0621B1E
:0E1B7A00730B840BBA0BEE1F88F7E0950895ED
:101B8800CF93DF93DC01F90164387105D9F164F46E
:101B98006138710521F16238710509F440C0603877
:101BA800710509F054C02EC060397105C1F184F483
:101BB8006838710509F04BC0C081D181CE01029609
:101BC80091838083E881F981ED93FC9340833CC045
:101BD800603A7105B9F0603C7105A1F038C0C08168
:101BE800D181CE01029691838083E881F981ED93BA
:101BF800FC93052E000C660B770B408351836283A0
:101C0800738322C0C081D181CE01029691838083E3
:101C1800E881F981ED93FC935183408315C0C0811D
:101C2800D181CE01029691838083E881F981ED9379
:101C3800FC9351834083852F880F880B828383838D
:101C4800848385838683878381E090E002C080E077
:081C580090E0DF91CF910895A7
:101C6000A2E0B0E0E6E3FEE00C940C151C014B0191
:101C7000FA01DB0112962D913C91139714964D9029
:101C80005C9015978D919C9111979A8389831696F4
:101C90006D907C90179737FD03C08D7F9A83898361
:101CA0000081118122813381448155816681778150
:101CB000FE0131965F0188E0C82ED12C7201C4016B
:101CC0000E94370B298124FF06C00197F301E80F1A
:101CD000F91F20E32083298123FF06C00197F30128
:101CE000E80FF91F20E22083E980FA80D4011896DA
:101CF0002D913C91199721503109281B390B860DE4
:101D0000971DAC0160E88201C1010E94DC0B9C01BF
:101D1000F1018081918190FF08C0D40112968D91CC
:101D20009C911397821793070CF4C9012296E2E164
:041D30000C944315B7
:101D34002F923F924F926F927F928F92AF92BF9267
:101D4400CF92DF92EF92FF920F931F93CF93DF9383
:101D5400CDB7DEB727970FB6F894DEBF0FBECDBF61
:101D64006C017B013901842E980181EA282E81E0DF
:101D7400382E80E0482E87E0F101AE014F5F5F4FBF
:101D8400DA01742D0E940416F70102811381A480E4
:101D9400B580E080F18061147104810419F43A0182
:101DA400F0E88F2E2115310529F4882DB3010E9406
:101DB4008D159C0117FD04C00217130708F4980140
:101DC4008501682DA301C6010E94DC0B27960FB67E
:101DD400F894DEBF0FBECDBFDF91CF911F910F915D
:101DE400FF90EF90DF90CF90BF90AF908F907F9057
:0A1DF4006F904F903F902F900895DC
:101DFE00CF93C82F813011F420E001C023E0C13011
:101E0E0011F471E001C074E0C13011F462E001C060
:101E1E0065E038B381E090E0AC0102C0440F551F7D
:101E2E002A95E2F7242F2095232328BB28B302C03E
:101E3E00880F991F7A95E2F78095822388BBC1306F
:101E4E0029F48BB3807F82608BBB04C08BB38F7001
:101E5E0080628BBB28B381E090E002C0880F991F8F
:101E6E006A95E2F7922F982B98BB98B380958923A9
:101E7E0088BB8DE08A95F1F700004C2F63E688E26F
:101E8E000E94630C4C2F63E68CE00E94630C4C2F77
:101E9E0063E681E00E94630C83EF91E00197F1F716
:081EAE0000C00000CF9108956F
:101EB60041E061E181E00E9429168091280161E0FC
:101EC6000E94D31341E065EF70E080E00E94281580
:101ED6008091270161E00E94D31341E06FE082E028
:101EE6000E942916809125018330D1F028F4813093
:101EF60049F0823071F030C0853001F1C0F0863093
:101F060021F12AC041E067EF70E080E00E942815C9
:101F1600089541E063E071E080E00E94281508958D
:101F260041E06FE071E080E00E942815089541E0ED
:101F36006BE171E080E00E942815089541E067E2B8
:101F460071E080E00E942815089541E063E371E0A6
:101F560080E00E942815089541E06FE371E080E07B
:061F66000E9428150895F9
:101F6C00A2E0B0E0ECEBFFE00C940C153C014B0153
:101F7C00FA01DB0112962D913C91139714964D901A
:101F8C005C9015978D919C9111979A8389831696E5
:101F9C002D903C90179737FD03C08D7F9A838983D2
:101FAC000081118122813381448155816681778141
:101FBC00FE0131965F018AE0C82ED12C7201C4015A
:101FCC000E94370BE980FA80D40118962D913C9130
:101FDC00199721503109281B390B820D931DAC0127
:101FEC0060E88201C3010E94DC0B9C01F30180813B
:101FFC00918190FF08C0D40112968D919C911397FA
:10200C00821793070CF4C9012296E2E10C94431554
:10201C000F931F93CF93DF93082F162FEA0142E003
:10202C0063E681E00E94630C83EF91E00197F1F786
:10203C0000C0000042E060E081E00E94291642E00E
:10204C006BE471E080E00E94281562E0802F0E9412
:10205C00D31342E069E571E080E00E94281542E06C
:10206C0064E181E00E94291642E06BE571E080E0BA
:10207C000E94281562E0812F0E94D31342E066E68D
:10208C0071E080E00E94281542E060E082E00E944E
:10209C00291642E068E671E080E00E94281562E0B3
:1020AC00CE010E94751342E063E771E080E00E946C
:0C20BC002815DF91CF911F910F9108951E
:1020C8008F929F92AF92BF92CF92DF92EF92FF9240
:1020D8000E947A168EEE0E944A1684EF0E944A16D3
:1020E80084E30E944A160E94821681EE94E00197CA
:1020F800F1F700C000000E947A168FEE0E944A167F
:1021080086EF0E944A160E9482160E947A168FEE67
:102118000E944A160E945416C82ED12CE12CF12C8C
:102128000E945416882E912CA12CB12C0E945E1668
:102138007601DD24CC24BA2CA92C982C8824C82814
:10214800D928EA28FB28CD2CDE2CEF2CFF240E946E
:102158008216C701B601FF90EF90DF90CF90BF9035
:08216800AF909F908F90089545
:102170006F927F928F92EF92FF920F931F93CF9364
:10218000DF93CDB7DEB761970FB6F894DEBF0FBE11
:10219000CDBFFE01319651E1DF011D925A95E9F75D
:1021A000A2E0B1E0BA83A9839C838B8377FF09C047
:1021B0008FE490E090931701809316018FEF9FEFCB
:1021C00019C03901842E7C01615071097F836E83AF
:1021D0009801682DA301CF010E945E15488559859D
:1021E0002E813F814217530708F49A01F701E20F4D
:1021F000F31F108261960FB6F894DEBF0FBECDBFFD
:10220000DF91CF911F910F91FF90EF908F907F9072
:042210006F9008952E
:1022140088249924F401E401B0E49F93AA279A1531
:102224008B049C04ED05FE05CF05D007A10798F4A7
:10223400AD2FDC2FCF2FFE2FE92D982C892E982F30
:10224400872F762F652F542F432F322F2227B850F4
:1022540031F7BF9127C01B2EBF91BB27220F331F1D
:10226400441F551F661F771F881F991F881C991CC0
:10227400EE1FFF1FCC1FDD1FAA1FBB1F8A149B0468
:10228400EC05FD05CE05DF05A007B10748F08A1867
:102294009B08EC09FD09CE09DF09A00BB10B2160F5
:1022A4001A94E1F62EF49401AF01BE01CD01000CA5
:0222B40008958B
:1022B6001F920F920FB60F9211242F938F939F9315
:1022C600809126018F5F80932601909126018DECE7
:1022D600989F812D112486958695282F220F220FEF
:1022E600820F981303C081E0809323018091260119
:1022F6008C3331F510922601809127018F5F8093F0
:102306002701809127018C33D9F4109227018091FF
:1023160028018F5F8093280180912801883181F4FC
:1023260010922801809125018F5F8093250180916D
:102336002501873029F41092250181E0809321013F
:102346009F918F912F910F900FBE0F901F90189510
:10235600CF92DF92EF92DC0190E0292F30E0220F3E
:10236600331F6901032E000CEE086E2DA60145579A
:102376005E4F6F4F6A01E62EFA018491E7FC808179
:1023860081110DC02F5F3F4F032E000C440B2557C4
:102396003E4F4F4FF901849147FD808124C0CD9077
:1023A600DD90EC901297F6014491E7FC408184138E
:1023B60015C02F5F3F4F032E000C440B25573E4F91
:1023C6004F4FF901949147FD90815FEFC51AD50AE9
:1023D600E50ACD92DD92EC92129701C09F5F9B3089
:0E23E60008F4BBCF892FEF90DF90CF900895C1
:1023F4000F931F93CF93DF93DB012D913C911197A2
:1024040030FF25C017964D915C91189715962D9124
:102414003C9116974217530778F41296ED91FC916C
:102424001397808312962D913C9113972F5F3F4F02
:1024340013963C932E93129717962D913C911897CF
:102444002F5F3F4F18963C932E93179715C01D96F8
:10245400ED91FC911E97309719F48FEF9FEF0CC00C
:102464008B01EC010995892BC1F7F80187819085CF
:10247400019690878783CE01DF91CF911F910F91B1
:022484000895B9
:10248600CF939B01482FF901849147FD80818032CB
:10249600C9F1682F082E000C770B69507109653059
:1024A600710580F18B3249F5A0E0B0E02F5F3F4F18
:1024B6004F4F02C0A0E0B0E080E090E0CAE0F90132
:1024C600649147FD6081062E000C770B60537109FD
:1024D6006A30710560F4C89FF001C99FF00D1124A0
:1024E6002F5F3F4F4F4FCF01861B970BE8CFAB2B8C
:1024F60069F491958195910909C08D32D9F6A1E0CB
:10250600B0E0D4CF2F5F3F4F4F4FBDCFCF9108954F
:102516001F920F920FB60F9211248F939F9387E805
:1025260093E10197F1F700C000000F9B27C080914F
:102536002401811114C081E08093240184E889BFBD
:102546001FBC8EB588608EBD81E49FE09BBD8ABDB1
:1025560087B7806187BF8EB584608EBD0FC010922D
:10256600240184EF89BF8EB5877F8EBD8EB58B7FA4
:102576008EBD87B78F7E87BF109226019F918F9160
:0A2586000F900FBE0F901F901895E4
:10259000E89409C097FB3EF49095809570956195FD
:1025A0007F4F8F4F9F4F9923A9F0F92F96E9BB27B3
:1025B0009395F695879577956795B795F111F8CF2F
:1025C000FAF4BB0F11F460FF1BC06F5F7F4F8F4F9A
:1025D0009F4F16C0882311F096E911C0772321F090
:1025E0009EE8872F762F05C0662371F096E8862F28
:1025F00070E060E02AF09A95660F771F881FDAF77F
:0A260000880F9695879597F90895C5
:10260A00CF92DF92EF92FF920E947A168EEE0E948C
:10261A004A1684EF0E944A168EE20E944A160E94C7
:10262A00821681EE94E00197F1F700C000000E9443
:10263A007A168FEE0E944A1686EF0E944A160E9468
:10264A0082160E947A168FEE0E944A160E9454162B
:10265A00C82ED12CE12CF12C0E945E16FE2CED2CFA
:10266A00DC2CCC24C82A0E948216C701B601FF902E
:08267A00EF90DF90CF9008956E
:102682006F927F928F92CF92DF92EF920F931F936E
:10269200CF93DF938C016A01E62EE9013A01862E7F
:1026A200620E731E811C37FD8A94C614D704E80497
:1026B20079F0F6018491E7FC8081B801082E000CC4
:1026C200990B0E94FA118FEFC81AD80AE80AEDCFC7
:1026D200CE01DF91CF911F910F91EF90DF90CF90BC
:0826E2008F907F906F90089526
:1026EA00FF920F931F93CF93DF9300D000D00F92E6
:1026FA00CDB7DEB7F62E9F938F9382EF90E0A0E0DE
:10270A00AF939F938F938E010F5F1F4F1F930F936A
:10271A000E94A315B80180E84F2D0E9428150FB614
:10272A00F894DEBF0FBECDBF0F900F900F900F90A1
:0E273A000F90DF91CF911F910F91FF900895A6
:102748000E942F1488F09F5798F0B92F9927B751F6
:10275800B0F0E1F0660F771F881F991F1AF0BA953D
:10276800C9F714C0B13091F00E94B716B1E00895CE
:102778000C94B716672F782F8827B85F39F0B93FC0
:10278800CCF3869577956795B395D9F73EF49095F0
:0E2798008095709561957F4F8F4F9F4F0895EC
:1027A600FF920F931F93CF93DF9300D00F92CDB775
:1027B600DEB7F62E1F928F9382EF90E0A0E0AF93E4
:1027C6009F938F938E010F5F1F4F1F930F930E944E
:1027D600A315B80180E84F2D0E9428150FB6F8946E
:1027E600DEBF0FBECDBF0F900F900F90DF91CF9140
:0827F6001F910F91FF9008955F
:1027FE001F920F920FB60F9211248F939F9387E81B
:10280E0093E10197F1F700C00000829B12C0809106
:10281E002001811106C081E0809322018093200166
:10282E0008C080912001813021F410922001109275
:10283E001F019F918F910F900FBE0F901F901895B3
:10284E0057FD9058440F551F59F05F3F71F0479553
:10285E00880F97FB991F61F09F3F79F08795089538
:10286E00121613061406551FF2CF4695F1DF08C057
:10287E00161617061806991FF1CF86957105610574
:04288E00089408950D
:10289200A1E21A2EAA1BBB1BFD010DC0AA1FBB1F62
:1028A200EE1FFF1FA217B307E407F50720F0A21BD4
:1028B200B30BE40BF50B661F771F881F991F1A9441
:1028C20069F760957095809590959B01AC01BD016B
:0428D200CF01089595
:1028D6001F920F920FB60F9211248F939F9387E842
:1028E60093E10197F1F700C000000C9B05C08091B1
:1028F60028018F5F8093280180912801883111F487
:10290600109228019F918F910F900FBE0F901F90EC
:02291600189512
:102918001F920F920FB60F9211248F939F9387E8FF
:1029280093E10197F1F700C000000D9B05C080916D
:1029380027018F5F80932701809127018C3311F441
:10294800109227019F918F910F900FBE0F901F90AB
:022958001895D0
:10295A001F920F920FB60F9211248F939F9387E8BD
:10296A0093E10197F1F700C000000E9B05C080912A
:10297A0025018F5F8093250180912501873011F40D
:10298A00109225019F918F910F900FBE0F901F906B
:02299A0018958E
:10299C00FA0160387105CCF0623871051CF06338AF
:1029AC00710599F4A081B1819D012C5F3F4F31835A
:1029BC0020834D915D916D917C91FC0140835183FD
:1029CC006283738381E090E0089580E090E0089545
:1029DC0097FB10F8169400080F93083098F00850E5
:1029EC00232F342F452F562F672F782F892F902D7B
:1029FC00F4CF059497958795779567955795479557
:0C2A0C00379527950A95AAF70F910895B9
:102A18002F923F924F925F926F927F928F929F92E6
:102A2800AF92BF92CF92DF92EF92FF920F931F93D4
:102A3800CF93DF93CDB7DEB7CA1BDB0B0FB6F89485
:082A4800DEBF0FBECDBF0994F3
:102A5000CF92DF92EF92CF936B01E82EC42F08C084
:102A60004C2F64E60E94630C8FEFC81AD80AE80A5C
:102A7000F6018491E7FC80818111F2CFCF91EF9034
:062A8000DF90CF900895E5
:102A86002A88398848885F846E847D848C849B84F8
:102A9600AA84B984C884DF80EE80FD800C811B8106
:102AA600AA81B981CE0FD11D0FB6F894DEBF0FBE35
:062AB600CDBFED01089503
:102ABC00A2E0B0E0E4E6F5E10C941A158C013A833F
:102ACC0029839E012F5F3F4F0E94D700F801208180
:102ADC0024FF02C08FEF9FEF2296E4E00C94511577
:102AEC00052E97FB1EF400940E948A1657FD07D002
:102AFC000E94491407FC03D04EF40C948A1650958E
:0E2B0C004095309521953F4F4F4F5F4F0895F4
:102B1A00CF92DF92EF926B01E82EA82FCB01FC0136
:102B2A002491A7FD2081222319F00196A11DF7CF38
:0C2B3A008C199D09EF90DF90CF9008955A
:102B4600A0E0B0E0E9EAF5E10C941C159E01265FD1
:102B56003F4F4F81588569858D819E810E94111650
:062B6600E2E00C9453159F
:102B6C00092E0394000C11F4882352F0BB0F40F48F
:102B7C00BF2B11F460FF04C06F5F7F4F8F4F9F4FCF
:022B8C000895AA
:102B8E00DB018F939F930E943416BF91AF91A29F4A
:102B9E00800D911DA39F900DB29F900D112408954D
:102BAE0060957095809590953095409550952195AE
:102BBE003F4F4F4F5F4F6F4F7F4F8F4F9F4F089538
:102BCE00A29FB001B39FC001A39F700D811D112460
:0E2BDE00911DB29F700D811D1124911D08954F
:102BEC00689401C0E8948F929F92CF93DF930E94D8
:0C2BFC000A11DF91CF919F908F900895F7
:102C0800992777FD05C005900D920197E1F7089582
:0A2C180001900D920197E1F7089575
:102C22000F931F9389019A01462F6FEF7FE70E944E
:082C3200B8101F910F910895E5
:102C3A000024A7FD00942A173005400550056005B9
:082C4A00700580059005089556
:102C5200813011F480E001C080E4860F63E6806871
:062C62000E94630C0895BE
:102C68000E94E715A59F900DB49F900DA49F800D1D
:062C7800911D11240895D6
:102C7E00EC010E94D9160E94D816CE010E94DA16D7
:062C8E00CE010E94D616E3
:102C94008093730084E88093740080917400882387
:042CA400E4F70895B4
:102CA80084EC80937400809174008823E4F7809109
:042CB8007300089508
:102CBC0084E880937400809174008823E4F78091F9
:042CCC0073000895F4
:102CD000FC01480F591FE417F50711F06193FBCF72
:022CE000089555
:102CE2009C01215631092A31310510F48F7599273B
:022CF200089543
:102CF40084EA80937400809174008823E4F7089533
:102D040084E9809374008091740084FDFCCF08955D
:102D140090958095709561957F4F8F4F9F4F089543
:102D2400B7FF0C9434160E943416821B930B08953B
:102D34009C01215431092A31310508F48062089537
:0E2D44000E94A4136894B1110C94B81608955F
:0E2D520000240A94161617061806090608959E
:0E2D600000240A9412161306140605060895A0
:0E2D6E00E894BB2766277727CB0197F90895D5
:0C2D7C0080E280937000109271000895B6
:0C2D880097F99F6780E870E060E0089514
:082D94000E94550D0C94B615C8
:062D9C009FEF80EC08959A
:062DA20080E090E00895BE
:042DA8000C94000087
:042DAC000E9477000A
:022DB000089584
:022DB200089582
:022DB400089580
:072DB60032323232323232B8
:012DBD000114
:00000001FF
